:100000000C9434000C9449000C9449000C94490061
:100010000C9449000C9449000C9449000C9449003C
:100020000C9449000C9449000C9449000C9449002C
:100030000C9449000C9449000C9449000C9449001C
:100040000C9449000C9449000C9449000C9449000C
:100050000C9449000C9449000C9449000C944900FC
:100060000C9449000C94490011241FBECFEFD8E036
:10007000DEBFCDBF11E0A0E0B1E0E8E2F7E002C0F2
:1000800005900D92A431B107D9F70E9461000C943C
:1000900092030C94000017B880EC80937C0087E8F2
:1000A00080937A00089580917A00806480937A002A
:1000B00080917A0084FFFCCF809178009091790044
:1000C0000895CF93DF93CDB7DEB764970FB6F8945A
:1000D000DEBF0FBECDBF0E944B008FEF8AB984B93F
:1000E0008FE085B984E088B98AE0E0E0F1E0DE01E4
:1000F0001B9601900D928A95E1F78AE0EAE0F1E023
:10010000DE01119601900D928A95E1F70AE010E068
:1001100054E6C52ED12C61E7562E7DEFB72EEBEFBE
:10012000AE2EF7EF9F2EAFEE8A2E77247A94B9E3A6
:100130006B2E0E945300BC0190E080E00E94970269
:1001400020E030E84BE354E40E94890120E030E0F5
:1001500040E251E40E94F60120E030E048EC51E436
:100160000E948A01329955C020E030E040E251E41B
:100170000E9425030E9468029B01CB01B6010E94E8
:100180007501CB01B8010E947501FC01C901B801DC
:100190000E9475019C01CB01B8010E9475014AE0E3
:1001A00050E06BE070E06C0F7D1F260F371FA1E061
:1001B000B0E0AC0FBD1F8A0F9B1FE60FF71F6BB897
:1001C000B5B8AFE1BEE41197F1F700C00000D90166
:1001D0006C916BB9A5B8AFE1BEE41197F1F700C01F
:1001E0000000DC016C916BB995B8AFE1BEE41197EA
:1001F000F1F700C0000060816BB985B8AFE1BEE4E3
:100200001197F1F700C0000075B841505109B9F6D7
:1002100090CF20E030E040E151E40E94250320E04F
:1002200030E040EA50E40E94F60120E030E040E097
:1002300052E40E948A0120E030E040E251E40E9452
:1002400025030E9468029B01CB01B8010E94750141
:100250007C01CB01B8010E947501FC01C901B60106
:100260000E947501CB01B8010E9475012AE030E0BF
:10027000ABE0B0E0AC0FBD1FAE0DBF1D61E070E0A4
:100280006C0F7D1F6E0F7F1F4BE0E42EF12CEC0EE8
:10029000FD1EE80EF91E5BB8B5B8EFE1FEE431973C
:1002A000F1F700C000004C914BB9A5B88FE19EE476
:1002B0000197F1F700C00000FB0140814BB995B8F0
:1002C0008FE19EE40197F1F700C00000F701408143
:1002D0004BB985B88FE19EE40197F1F700C00000AB
:1002E00075B821503109B9F624CFAA1BBB1B51E1C7
:1002F00007C0AA1FBB1FA617B70710F0A61BB70B96
:10030000881F991F5A95A9F780959095BC01CD013A
:1003100008955058BB27AA270E94A1010C94EB0214
:100320000E94DD0238F00E94E40220F039F49F3F81
:1003300019F426F40C94DA020EF4E095E7FB0C9421
:10034000D402E92F0E94FC0258F3BA176207730720
:100350008407950720F079F4A6F50C941E030EF49B
:10036000E0950B2EBA2FA02D0B01B90190010C01C5
:10037000CA01A0011124FF27591B99F0593F50F4DD
:10038000503E68F11A16F040A22F232F342F442735
:10039000585FF3CF469537952795A795F04053952D
:1003A000C9F77EF41F16BA0B620B730B840BBAF0FD
:1003B0009150A1F0FF0FBB1F661F771F881FC2F768
:1003C0000EC0BA0F621F731F841F48F4879577957C
:1003D0006795B795F7959E3F08F0B0CF9395880F36
:1003E00008F09927EE0F9795879508950E940A02C5
:1003F0000C94EB020E94E40258F00E94DD0240F0EF
:1004000029F45F3F29F00C94D40251110C941F037E
:100410000C94DA020E94FC0268F39923B1F355238D
:1004200091F3951B550BBB27AA2762177307840707
:1004300038F09F5F5F4F220F331F441FAA1FA9F39D
:1004400035D00E2E3AF0E0E832D091505040E6958B
:10045000001CCAF72BD0FE2F29D0660F771F881FEC
:10046000BB1F261737074807AB07B0E809F0BB0BDF
:10047000802DBF01FF2793585F4F3AF09E3F5105F3
:1004800078F00C94D4020C941F035F3FE4F3983E81
:10049000D4F3869577956795B795F7959F5FC9F7DC
:1004A000880F911D9695879597F90895E1E0660F5D
:1004B000771F881FBB1F621773078407BA0720F0D6
:1004C000621B730B840BBA0BEE1F88F7E09508953F
:1004D0000E94040388F09F5798F0B92F9927B751CD
:1004E000B0F0E1F0660F771F881F991F1AF0BA95D8
:1004F000C9F714C0B13091F00E941E03B1E0089515
:100500000C941E03672F782F8827B85F39F0B93F06
:10051000CCF3869577956795B395D9F73EF490958A
:100520008095709561957F4F8F4F9F4F0895E89408
:1005300009C097FB3EF490958095709561957F4F2B
:100540008F4F9F4F9923A9F0F92F96E9BB279395D9
:10055000F695879577956795B795F111F8CFFAF4E9
:10056000BB0F11F460FF1BC06F5F7F4F8F4F9F4F1A
:1005700016C0882311F096E911C0772321F09EE878
:10058000872F762F05C0662371F096E8862F70E0DE
:1005900060E02AF09A95660F771F881FDAF7880FB8
:1005A0009695879597F9089597F99F6780E870E089
:1005B00060E008959FEF80EC089500240A941616D9
:1005C000170618060906089500240A941216130641
:1005D000140605060895092E0394000C11F48823CF
:1005E00052F0BB0F40F4BF2B11F460FF04C06F5FEB
:1005F0007F4F8F4F9F4F089557FD9058440F551FC1
:1006000059F05F3F71F04795880F97FB991F61F094
:100610009F3F79F087950895121613061406551F0B
:10062000F2CF4695F1DF08C0161617061806991F77
:10063000F1CF86957105610508940895E894BB276C
:1006400066277727CB0197F908950E9438030C9409
:10065000EB020E94DD0238F00E94E40220F09523B4
:1006600011F00C94D4020C94DA0211240C941F03A0
:100670000E94FC0270F3959FC1F3950F50E0551F47
:10068000629FF001729FBB27F00DB11D639FAA27E7
:10069000F00DB11DAA1F649F6627B00DA11D661F36
:1006A000829F2227B00DA11D621F739FB00DA11D57
:1006B000621F839FA00D611D221F749F3327A00D11
:1006C000611D231F849F600D211D822F762F6A2FAD
:1006D00011249F5750409AF0F1F088234AF0EE0F12
:1006E000FF1FBB1F661F771F881F91505040A9F73F
:1006F0009E3F510580F00C94D4020C941F035F3F81
:10070000E4F3983ED4F3869577956795B795F7957A
:10071000E7959F5FC1F7FE2B880F911D96958795F2
:0807200097F90895F894FFCF4A
:100728003F065B4F666D7D077F67BF86DBCFE6EDD3
:04073800FD87FFE753
:00000001FF
